:020000040800F2
:1000000000000120050300080B030008110300088D
:1000100033030008390300085B03000800000000F8
:100020000000000000000000000000007D03000848
:100030008303000800000000890300088F03000804
:10004000AD030008AD030008AD030008AD030008D0
:10005000AD030008AD0300083D060008AD0300082D
:10006000AD030008AD03000881060008AD030008D9
:10007000AD030008AD030008AD030008AD030008A0
:10008000AD030008AD030008AD0300080000000048
:10009000000000000000000000000000AD030008A8
:1000A000AD030008AD030008AD030008AD03000870
:1000B000AD030008AD030008AD030008AD03000860
:1000C000AD030008AD030008AD030008AD03000850
:1000D000AD030008AD030008AD03000800000000F8
:1000E000AD030008AD030008AD03000800000000E8
:1000F000000000000000000000000000AD03000848
:1001000000000000AD030008AD030008AD030008C7
:1001100000000000000000000000000000000000DF
:10012000AD030008AD030008AD030008AD030008EF
:10013000AD03000800000000000000000000000007
:10014000000000000000000000000000AD030008F7
:10015000AD030008AD030008AD030008AD030008BF
:10016000AD030008AD03000800000000000000001F
:10017000000000000000000000000000000000007F
:1001800000000000AD0300080000000000000000B7
:10019000AD03000880B596B000AF00F037F94F4BC3
:1001A0007B6524E07B6D1A1D7A651B683B647B6D63
:1001B0001A1D7A651B68FB637B6D1A1D7A651B68C7
:1001C000BB633B6C7B63FB6B3B63BB6BFB623B6B5F
:1001D000BB6207E07A6B131D7B63BB6A191DB962B2
:1001E00012681A60FA6ABB6A9A42F3D800BF7B6D44
:1001F0003B4A9342D6D33B4B3B651AE03B6D1A1DFD
:100200003A651B68BB643B6D1A1D3A651B687B64CD
:10021000BB6C7B627B6C3B627B6AFB6104E0FB69CD
:100220001A1DFA6100221A603A6AFB699A42F6D8EE
:1002300000BF3B6D2C4A9342E0D300F0F5F83A1D25
:1002400007F108031146184600F0CEF8274A284B5C
:10025000D31A9B103B610023FB6007E0244AFB6834
:1002600052F823309847FB680133FB603A69FB681A
:100270009A42F3DC1F4A204BD31A9B103B610023A8
:10028000FB6007E01C4AFB6852F823309847FB6884
:100290000133FB603A69FB689A42F3DC00BFBB683C
:1002A0007A681146184600F06BF9F864134A144B4B
:1002B000D31A9B10BB61BB697B6108E07B69013B82
:1002C0000F4A52F8233098477B69013B7B617B6979
:1002D000002BF3DC00BFF86C00F080F8B4030008DA
:1002E000CC030008CC030008DC030008DC03000892
:1002F000DC030008DC030008DC030008DC03000862
:10030000DC0300082548004700BF80B400AFFEE7CB
:100310001EF0040F0CBFEFF30880EFF30980714665
:100320001F4A104700BF80B483B000AF78603960C7
:10033000FEE780B400AFFEE71EF0040F0CBFEFF342
:100340000880EFF309807146164A104700BF80B459
:1003500083B000AF78603960FEE71EF0040F0CBF79
:10036000EFF30880EFF3098071460F4A104700BF92
:1003700080B483B000AF78603960FEE780B400AF2E
:10038000FEE780B400AFFEE780B400AFFEE780B4C4
:1003900000AF00BFBD4680BC70470000950100085B
:1003A000270300084F0300087103000880B400AF62
:0203B000FEE766
:1003B400A00E00080000002020000020A00E00086D
:1003C4000000001000000010200000202400002085
:0803D400000000100000001001
:1003DC0080B582B000AF786000F03CF880B483B098
:1003EC0000AF786039607B6801221A603B68034A71
:1003FC001A6000BF0C37BD4680BC7047000000205F
:10040C0080B500AF00F02AF8024B034A9A6000BF97
:10041C0080BD00BF00ED00E00000000880B500AF1B
:10042C0000F028F800BF80BD80B400AFBFF34F8F41
:10043C0000BF064BDB6803F4E0620449044B134332
:10044C00CB60BFF34F8F00BF00BFFDE700ED00E0B6
:10045C000400FA0580B500AFFFF7E6FF80B400AFEB
:10046C00034B4FF000629A6000BFBD4680BC7047E2
:10047C0000ED00E080B487B000AF00233B610023A7
:10048C007B610223FB600023BB6002237B60344B47
:10049C009B6803F00C033B613B69082B11D03B6953
:1004AC00082B44D83B69002B03D03B69042B04D0A8
:1004BC003DE02C4B2C4A1A603DE02A4B2B4A1A602B
:1004CC0039E0274B5B689B0D03F00103BB60244BA9
:1004DC005B6803F03F037B60BB68002B0CD0234AA6
:1004EC007B68B2FBF3F31E4A52689209C2F308020E
:1004FC0002FB03F37B610BE01B4A7B68B2FBF3F35B
:10050C00174A52689209C2F3080202FB03F37B619B
:10051C00134B5B681B0C03F0030301335B00FB60A4
:10052C007A69FB68B2FBF3F30E4A136003E00D4BE0
:10053C000D4A1A6000BF0A4B9B681B0903F00F039E
:10054C000B4AD35C3B61074B1A683B6922FA03F3F5
:10055C00044A136000BF1C37BD4680BC704700BF07
:10056C0000380240080000200024F40000127A0039
:10057C00900E000880B582B000AF00F02BFA00207E
:10058C0000F036FA012000F033FA6E2000F030FA59
:10059C00002301220021412000F07EFA00230122D9
:1005AC000121412000F078FA002301220221412090
:1005BC0000F072FA002301220321412000F06CFAB2
:1005CC00002301220421412000F066FA00230122BD
:1005DC000521412000F060FA002301220621412070
:1005EC0000F05AFA46220021422000F009FB462274
:1005FC000421422000F004FB002000F023FC042026
:10060C0000F020FC084B1B681B78184600F054F8CF
:10061C0000237B6002E07B6801337B607B68034ACC
:10062C009342F8D9EEE700BF0C0000203F420F00C8
:10063C0080B400AF0D4B1B681B78092B04D10B4BFE
:10064C001B6800221A7007E0084B1B681A78074BCE
:10065C001B680132D2B21A70054B5B69044A23F055
:10066C001003536100BFBD4680BC70470C000020D6
:10067C00003C014080B400AF0D4B1B681B78002B75
:10068C0004D10B4B1B6809221A7007E0084B1B683E
:10069C001A78074B1B68013AD2B21A70054B5B698A
:1006AC00044A23F01003536100BFBD4680BC704761
:1006BC000C000020003C014080B582B000AF034626
:1006CC00FB71FB79092B00F27F8101A252F823F018
:1006DC00050700084D07000895070008DD0700080E
:1006EC00250800086D080008B5080008FD0800087A
:1006FC00450900088D09000801220021412000F065
:10070C002DFA01220121412000F028FA01220221B8
:10071C00412000F023FA01220321412000F01EFAAF
:10072C0001220421412000F019FA01220521412067
:10073C0000F014FA00220621412000F00FFA44E1E7
:10074C0000220021412000F009FA01220121412060
:10075C0000F004FA01220221412000F0FFF90022EE
:10076C000321412000F0FAF900220421412000F07D
:10077C00F5F900220521412000F0F0F900220621B4
:10078C00412000F0EBF920E101220021412000F092
:10079C00E5F901220121412000F0E0F900220221BB
:1007AC00412000F0DBF901220321412000F0D6F9B1
:1007BC0001220421412000F0D1F900220521412021
:1007CC0000F0CCF901220621412000F0C7F9FCE031
:1007DC0001220021412000F0C1F901220121412018
:1007EC0000F0BCF901220221412000F0B7F90122EE
:1007FC000321412000F0B2F900220421412000F035
:10080C00ADF900220521412000F0A8F901220621B2
:10081C00412000F0A3F9D8E000220021412000F093
:10082C009DF901220121412000F098F901220221B9
:10083C00412000F093F900220321412000F08EF9B1
:10084C0000220421412000F089F9012205214120D8
:10085C0000F084F901220621412000F07FF9B4E078
:10086C0001220021412000F079F9002201214120D0
:10087C0000F074F901220221412000F06FF90122ED
:10088C000321412000F06AF900220421412000F0EC
:10089C0065F901220521412000F060F901220621B1
:1008AC00412000F05BF990E001220021412000F092
:1008BC0055F900220121412000F050F901220221BA
:1008CC00412000F04BF901220321412000F046F9B0
:1008DC0001220421412000F041F90122052141208F
:1008EC0000F03CF901220621412000F037F96CE0C0
:1008FC0001220021412000F031F901220121412087
:10090C0000F02CF901220221412000F027F90022ED
:10091C000321412000F022F900220421412000F0A3
:10092C001DF900220521412000F018F900220621B2
:10093C00412000F013F948E001220021412000F091
:10094C000DF901220121412000F008F901220221B8
:10095C00412000F003F901220321412000F0FEF8B0
:10096C0001220421412000F0F9F801220521412047
:10097C0000F0F4F801220621412000F0EFF824E009
:10098C0001220021412000F0E9F80122012141203F
:10099C0000F0E4F801220221412000F0DFF80122EE
:1009AC000321412000F0DAF800220421412000F05C
:1009BC00D5F801220521412000F0D0F801220621B2
:1009CC00412000F0CBF800E000BF00BF0837BD4667
:1009DC0080BD00BF80B400AF044B1B68034A43F0DA
:1009EC000103136000BFBD4680BC70470038024055
:1009FC0080B485B000AF0346FB71FB795B09FB73D8
:100A0C00FB7903F01F03BB73FB7B032B36D801A2CE
:100A1C0052F823F0310A0008470A00085D0A000862
:100A2C00730A0008184B1B68BA7B012101FA02F209
:100A3C001146154A0B43136021E0144B1B68BA7B1B
:100A4C00012101FA02F21146104A0B43136016E021
:100A5C000F4B1B68BA7B012101FA02F211460C4ABA
:100A6C000B4313600BE00B4B1B68BA7B012101FAA3
:100A7C0002F21146074A0B43136000E000BF00BFAF
:100A8C001437BD4680BC70473038024034380240C1
:100A9C00403802404438024090B484B000AF044661
:100AAC00084611461A462346FB710346BB710B469A
:100ABC007B7113463B713B7903F00103FB733B796C
:100ACC005B08BB73FB79413B7B737B7B224A52F8FF
:100ADC002330BB60BB681B68BA795200032101FA52
:100AEC0002F2D2431A40BB681A60BB681B68797962
:100AFC00BA79520001FA02F21A43BB681A60BB6859
:100B0C005B68BA79012101FA02F2D2431A40BB6840
:100B1C005A60BB685B68F97BBA7901FA02F21A4336
:100B2C00BB685A60BB68DB68BA795200032101FAD2
:100B3C0002F2D2431A40BB68DA60BB68DB68B97B4F
:100B4C00BA79520001FA02F21A43BB68DA6000BFAC
:100B5C001037BD4690BC70471000002080B485B0A3
:100B6C0000AF0346FB710B46BB7113467B71FB79DF
:100B7C00413BFB73FB7B0E4A52F82330BB60BB68D6
:100B8C005B69BA79012101FA02F2D2431A40BB68BF
:100B9C005A61BB685B697979BA7901FA02F21A4336
:100BAC00BB685A6100BF1437BD4680BC704700BF9C
:100BBC001000002080B483B000AF78607B6803F035
:100BCC0003039B000F2202FA03F318460C37BD46B1
:100BDC0080BC704780B485B000AF03463960FB71B0
:100BEC00FB79413BFB73FA7B3B6803F003039B00EF
:100BFC0002FA03F318461437BD4680BC7047000058
:100C0C0080B584B000AF0346B9607A60FB73BB68F3
:100C1C00D9B2F87B02230022FFF73EFF7B68462BFC
:100C2C0015D1854BDB680121BA6801FA02F2D24377
:100C3C001146814A0B40D3607F4BDB680121BA68B7
:100C4C0001FA02F211467C4A0B43D36045E07B6803
:100C5C00522B15D1784B9B680121BA6801FA02F22C
:100C6C00D2431146744A0B409360734B9B6801212D
:100C7C00BA6801FA02F211466F4A0B4393602CE0FA
:100C8C007B68422B29D16C4BDB680121BA6801FAD5
:100C9C0002F2D2431146684A0B40D360664BDB68C4
:100CAC000121BA6801FA02F21146634A0B43D36080
:100CBC00614B9B680121BA6801FA02F2D2431146DA
:100CCC005D4A0B4093605C4B9B680121BA6801FA4A
:100CDC0002F21146584A0B439360BB68042B17D899
:100CEC00564B1B68BA680632012101FA02F2D24354
:100CFC001146524A0B401360504B1B68BA680632BF
:100D0C00012101FA02F211464C4A0B43136024E014
:100D1C00BB68042B0FD9BB68092B0CD8474B1B683D
:100D2C00464A23F400031360444B1B68434A43F4C4
:100D3C000003136011E0BB68092B0ED9BB680E2BA6
:100D4C000BD83E4B1B683D4A23F4000313603B4B0E
:100D5C001B683A4A43F400031360BB68032B15D895
:100D6C00B868FFF727FF0346DA43354B9B683449D5
:100D7C0013408B60FB7BB9681846FFF72BFF0246CC
:100D8C002F4B9B682E4913438B6050E0BB68032BA1
:100D9C0018D9BB68072B15D8B868FFF70BFF0346AB
:100DAC00DA43274BDB6826491340CB60FB7BB968E1
:100DBC001846FFF70FFF0246214BDB68204913430F
:100DCC00CB6034E0BB68072B18D9BB680B2B15D84C
:100DDC00B868FFF7EFFE0346DA43194BDB68184996
:100DEC001340CB60FB7BB9681846FFF7F3FE024655
:100DFC00134BDB6812491343CB6018E0BB680B2B19
:100E0C0015D9B868FFF7D6FE0346DA430C4BDB68FE
:100E1C000B491340CB60FB7BB9681846FFF7DAFE31
:100E2C000246074BDB6806491343CB60FFE700BF64
:100E3C001037BD4680BD00BF003C014000E100E022
:100E4C000038014080B483B000AF78600C4B1B6855
:100E5C0001217A6801FA02F2D2431146084A0B408A
:100E6C001360074B1B6801217A6801FA02F21146E4
:100E7C00034A0B43136000BF0C37BD4680BC704760
:100E8C00003C0140000000000000000001020304CF
:040E9C000607080934
:100EA00020000020000000000024F40021000020A9
:100EB000000002400004024000080240000C024012
:040000050800019559
:00000001FF
